{
  "contractName": "CMUToken1",
  "abi": [
    {
      "inputs": [
        {
          "internalType": "uint256",
          "name": "initialSupply",
          "type": "uint256"
        },
        {
          "internalType": "string",
          "name": "tokenName",
          "type": "string"
        },
        {
          "internalType": "string",
          "name": "tokenSymbol",
          "type": "string"
        }
      ],
      "payable": false,
      "stateMutability": "nonpayable",
      "type": "constructor"
    },
    {
      "anonymous": false,
      "inputs": [
        {
          "indexed": true,
          "internalType": "address",
          "name": "_owner",
          "type": "address"
        },
        {
          "indexed": true,
          "internalType": "address",
          "name": "_spender",
          "type": "address"
        },
        {
          "indexed": false,
          "internalType": "uint256",
          "name": "_value",
          "type": "uint256"
        }
      ],
      "name": "Approval",
      "type": "event"
    },
    {
      "anonymous": false,
      "inputs": [
        {
          "indexed": true,
          "internalType": "address",
          "name": "from",
          "type": "address"
        },
        {
          "indexed": false,
          "internalType": "uint256",
          "name": "value",
          "type": "uint256"
        }
      ],
      "name": "Burn",
      "type": "event"
    },
    {
      "anonymous": false,
      "inputs": [
        {
          "indexed": false,
          "internalType": "address",
          "name": "target",
          "type": "address"
        },
        {
          "indexed": false,
          "internalType": "bool",
          "name": "frozen",
          "type": "bool"
        }
      ],
      "name": "FrozenFunds",
      "type": "event"
    },
    {
      "anonymous": false,
      "inputs": [
        {
          "indexed": true,
          "internalType": "address",
          "name": "from",
          "type": "address"
        },
        {
          "indexed": true,
          "internalType": "address",
          "name": "to",
          "type": "address"
        },
        {
          "indexed": false,
          "internalType": "uint256",
          "name": "value",
          "type": "uint256"
        }
      ],
      "name": "Transfer",
      "type": "event"
    },
    {
      "constant": true,
      "inputs": [
        {
          "internalType": "address",
          "name": "",
          "type": "address"
        },
        {
          "internalType": "address",
          "name": "",
          "type": "address"
        }
      ],
      "name": "allowance",
      "outputs": [
        {
          "internalType": "uint256",
          "name": "",
          "type": "uint256"
        }
      ],
      "payable": false,
      "stateMutability": "view",
      "type": "function"
    },
    {
      "constant": false,
      "inputs": [
        {
          "internalType": "address",
          "name": "_spender",
          "type": "address"
        },
        {
          "internalType": "uint256",
          "name": "_value",
          "type": "uint256"
        }
      ],
      "name": "approve",
      "outputs": [
        {
          "internalType": "bool",
          "name": "success",
          "type": "bool"
        }
      ],
      "payable": false,
      "stateMutability": "nonpayable",
      "type": "function"
    },
    {
      "constant": false,
      "inputs": [
        {
          "internalType": "address",
          "name": "_spender",
          "type": "address"
        },
        {
          "internalType": "uint256",
          "name": "_value",
          "type": "uint256"
        },
        {
          "internalType": "bytes",
          "name": "_extraData",
          "type": "bytes"
        }
      ],
      "name": "approveAndCall",
      "outputs": [
        {
          "internalType": "bool",
          "name": "success",
          "type": "bool"
        }
      ],
      "payable": false,
      "stateMutability": "nonpayable",
      "type": "function"
    },
    {
      "constant": true,
      "inputs": [
        {
          "internalType": "address",
          "name": "",
          "type": "address"
        }
      ],
      "name": "balanceOf",
      "outputs": [
        {
          "internalType": "uint256",
          "name": "",
          "type": "uint256"
        }
      ],
      "payable": false,
      "stateMutability": "view",
      "type": "function"
    },
    {
      "constant": false,
      "inputs": [
        {
          "internalType": "uint256",
          "name": "_value",
          "type": "uint256"
        }
      ],
      "name": "burn",
      "outputs": [
        {
          "internalType": "bool",
          "name": "success",
          "type": "bool"
        }
      ],
      "payable": false,
      "stateMutability": "nonpayable",
      "type": "function"
    },
    {
      "constant": false,
      "inputs": [
        {
          "internalType": "address",
          "name": "_from",
          "type": "address"
        },
        {
          "internalType": "uint256",
          "name": "_value",
          "type": "uint256"
        }
      ],
      "name": "burnFrom",
      "outputs": [
        {
          "internalType": "bool",
          "name": "success",
          "type": "bool"
        }
      ],
      "payable": false,
      "stateMutability": "nonpayable",
      "type": "function"
    },
    {
      "constant": true,
      "inputs": [],
      "name": "buyPrice",
      "outputs": [
        {
          "internalType": "uint256",
          "name": "",
          "type": "uint256"
        }
      ],
      "payable": false,
      "stateMutability": "view",
      "type": "function"
    },
    {
      "constant": true,
      "inputs": [],
      "name": "decimals",
      "outputs": [
        {
          "internalType": "uint8",
          "name": "",
          "type": "uint8"
        }
      ],
      "payable": false,
      "stateMutability": "view",
      "type": "function"
    },
    {
      "constant": true,
      "inputs": [
        {
          "internalType": "address",
          "name": "",
          "type": "address"
        }
      ],
      "name": "frozenAccount",
      "outputs": [
        {
          "internalType": "bool",
          "name": "",
          "type": "bool"
        }
      ],
      "payable": false,
      "stateMutability": "view",
      "type": "function"
    },
    {
      "constant": true,
      "inputs": [],
      "name": "name",
      "outputs": [
        {
          "internalType": "string",
          "name": "",
          "type": "string"
        }
      ],
      "payable": false,
      "stateMutability": "view",
      "type": "function"
    },
    {
      "constant": true,
      "inputs": [],
      "name": "owner",
      "outputs": [
        {
          "internalType": "address",
          "name": "",
          "type": "address"
        }
      ],
      "payable": false,
      "stateMutability": "view",
      "type": "function"
    },
    {
      "constant": true,
      "inputs": [],
      "name": "sellPrice",
      "outputs": [
        {
          "internalType": "uint256",
          "name": "",
          "type": "uint256"
        }
      ],
      "payable": false,
      "stateMutability": "view",
      "type": "function"
    },
    {
      "constant": true,
      "inputs": [],
      "name": "symbol",
      "outputs": [
        {
          "internalType": "string",
          "name": "",
          "type": "string"
        }
      ],
      "payable": false,
      "stateMutability": "view",
      "type": "function"
    },
    {
      "constant": true,
      "inputs": [],
      "name": "totalSupply",
      "outputs": [
        {
          "internalType": "uint256",
          "name": "",
          "type": "uint256"
        }
      ],
      "payable": false,
      "stateMutability": "view",
      "type": "function"
    },
    {
      "constant": false,
      "inputs": [
        {
          "internalType": "address",
          "name": "_to",
          "type": "address"
        },
        {
          "internalType": "uint256",
          "name": "_value",
          "type": "uint256"
        }
      ],
      "name": "transfer",
      "outputs": [
        {
          "internalType": "bool",
          "name": "success",
          "type": "bool"
        }
      ],
      "payable": false,
      "stateMutability": "nonpayable",
      "type": "function"
    },
    {
      "constant": false,
      "inputs": [
        {
          "internalType": "address",
          "name": "_from",
          "type": "address"
        },
        {
          "internalType": "address",
          "name": "_to",
          "type": "address"
        },
        {
          "internalType": "uint256",
          "name": "_value",
          "type": "uint256"
        }
      ],
      "name": "transferFrom",
      "outputs": [
        {
          "internalType": "bool",
          "name": "success",
          "type": "bool"
        }
      ],
      "payable": false,
      "stateMutability": "nonpayable",
      "type": "function"
    },
    {
      "constant": false,
      "inputs": [
        {
          "internalType": "address",
          "name": "newOwner",
          "type": "address"
        }
      ],
      "name": "transferOwnership",
      "outputs": [],
      "payable": false,
      "stateMutability": "nonpayable",
      "type": "function"
    },
    {
      "constant": false,
      "inputs": [
        {
          "internalType": "address",
          "name": "target",
          "type": "address"
        },
        {
          "internalType": "uint256",
          "name": "mintedAmount",
          "type": "uint256"
        }
      ],
      "name": "mintToken",
      "outputs": [],
      "payable": false,
      "stateMutability": "nonpayable",
      "type": "function"
    },
    {
      "constant": false,
      "inputs": [
        {
          "internalType": "address",
          "name": "target",
          "type": "address"
        },
        {
          "internalType": "bool",
          "name": "freeze",
          "type": "bool"
        }
      ],
      "name": "freezeAccount",
      "outputs": [],
      "payable": false,
      "stateMutability": "nonpayable",
      "type": "function"
    },
    {
      "constant": false,
      "inputs": [
        {
          "internalType": "uint256",
          "name": "newSellPrice",
          "type": "uint256"
        },
        {
          "internalType": "uint256",
          "name": "newBuyPrice",
          "type": "uint256"
        }
      ],
      "name": "setPrices",
      "outputs": [],
      "payable": false,
      "stateMutability": "nonpayable",
      "type": "function"
    },
    {
      "constant": false,
      "inputs": [],
      "name": "buy",
      "outputs": [],
      "payable": true,
      "stateMutability": "payable",
      "type": "function"
    },
    {
      "constant": false,
      "inputs": [
        {
          "internalType": "uint256",
          "name": "amount",
          "type": "uint256"
        }
      ],
      "name": "sell",
      "outputs": [],
      "payable": false,
      "stateMutability": "nonpayable",
      "type": "function"
    }
  ],
  "bytecode": "0x60806040526012600360006101000a81548160ff021916908360ff1602179055503480156200002d57600080fd5b5060405162001cf638038062001cf6833981810160405260608110156200005357600080fd5b8101908080519060200190929190805160405193929190846401000000008211156200007e57600080fd5b838201915060208201858111156200009557600080fd5b8251866001820283011164010000000082111715620000b357600080fd5b8083526020830192505050908051906020019080838360005b83811015620000e9578082015181840152602081019050620000cc565b50505050905090810190601f168015620001175780820380516001836020036101000a031916815260200191505b50604052602001805160405193929190846401000000008211156200013b57600080fd5b838201915060208201858111156200015257600080fd5b82518660018202830111640100000000821117156200017057600080fd5b8083526020830192505050908051906020019080838360005b83811015620001a657808201518184015260208101905062000189565b50505050905090810190601f168015620001d45780820380516001836020036101000a031916815260200191505b50604052505050828282336000806101000a81548173ffffffffffffffffffffffffffffffffffffffff021916908373ffffffffffffffffffffffffffffffffffffffff160217905550600360009054906101000a900460ff1660ff16600a0a8302600481905550600454600560003373ffffffffffffffffffffffffffffffffffffffff1673ffffffffffffffffffffffffffffffffffffffff1681526020019081526020016000208190555081600190805190602001906200029a929190620002c0565b508060029080519060200190620002b3929190620002c0565b505050505050506200036f565b828054600181600116156101000203166002900490600052602060002090601f016020900481019282601f106200030357805160ff191683800117855562000334565b8280016001018555821562000334579182015b828111156200033357825182559160200191906001019062000316565b5b50905062000343919062000347565b5090565b6200036c91905b80821115620003685760008160009055506001016200034e565b5090565b90565b611977806200037f6000396000f3fe6080604052600436106101355760003560e01c80638620410b116100ab578063b414d4b61161006f578063b414d4b6146106b1578063cae9ca511461071a578063dd62ed3e14610824578063e4849b32146108a9578063e724529c146108e4578063f2fde38b1461094157610135565b80638620410b146105225780638da5cb5b1461054d57806395d89b41146105a4578063a6f2ae3a14610634578063a9059cbb1461063e57610135565b8063313ce567116100fd578063313ce5671461034057806342966c68146103715780634b750334146103c457806370a08231146103ef57806379c650681461045457806379cc6790146104af57610135565b806305fefda71461013a57806306fdde031461017f578063095ea7b31461020f57806318160ddd1461028257806323b872dd146102ad575b600080fd5b34801561014657600080fd5b5061017d6004803603604081101561015d57600080fd5b810190808035906020019092919080359060200190929190505050610992565b005b34801561018b57600080fd5b506101946109fd565b6040518080602001828103825283818151815260200191508051906020019080838360005b838110156101d45780820151818401526020810190506101b9565b50505050905090810190601f1680156102015780820380516001836020036101000a031916815260200191505b509250505060405180910390f35b34801561021b57600080fd5b506102686004803603604081101561023257600080fd5b81019080803573ffffffffffffffffffffffffffffffffffffffff16906020019092919080359060200190929190505050610a9b565b604051808215151515815260200191505060405180910390f35b34801561028e57600080fd5b50610297610b8d565b6040518082815260200191505060405180910390f35b3480156102b957600080fd5b50610326600480360360608110156102d057600080fd5b81019080803573ffffffffffffffffffffffffffffffffffffffff169060200190929190803573ffffffffffffffffffffffffffffffffffffffff16906020019092919080359060200190929190505050610b93565b604051808215151515815260200191505060405180910390f35b34801561034c57600080fd5b50610355610cbe565b604051808260ff1660ff16815260200191505060405180910390f35b34801561037d57600080fd5b506103aa6004803603602081101561039457600080fd5b8101908080359060200190929190505050610cd1565b604051808215151515815260200191505060405180910390f35b3480156103d057600080fd5b506103d9610dd3565b6040518082815260200191505060405180910390f35b3480156103fb57600080fd5b5061043e6004803603602081101561041257600080fd5b81019080803573ffffffffffffffffffffffffffffffffffffffff169060200190929190505050610dd9565b6040518082815260200191505060405180910390f35b34801561046057600080fd5b506104ad6004803603604081101561047757600080fd5b81019080803573ffffffffffffffffffffffffffffffffffffffff16906020019092919080359060200190929190505050610df1565b005b3480156104bb57600080fd5b50610508600480360360408110156104d257600080fd5b81019080803573ffffffffffffffffffffffffffffffffffffffff16906020019092919080359060200190929190505050610f76565b604051808215151515815260200191505060405180910390f35b34801561052e57600080fd5b5061053761118c565b6040518082815260200191505060405180910390f35b34801561055957600080fd5b50610562611192565b604051808273ffffffffffffffffffffffffffffffffffffffff1673ffffffffffffffffffffffffffffffffffffffff16815260200191505060405180910390f35b3480156105b057600080fd5b506105b96111b7565b6040518080602001828103825283818151815260200191508051906020019080838360005b838110156105f95780820151818401526020810190506105de565b50505050905090810190601f1680156106265780820380516001836020036101000a031916815260200191505b509250505060405180910390f35b61063c611255565b005b34801561064a57600080fd5b506106976004803603604081101561066157600080fd5b81019080803573ffffffffffffffffffffffffffffffffffffffff16906020019092919080359060200190929190505050611273565b604051808215151515815260200191505060405180910390f35b3480156106bd57600080fd5b50610700600480360360208110156106d457600080fd5b81019080803573ffffffffffffffffffffffffffffffffffffffff16906020019092919050505061128a565b604051808215151515815260200191505060405180910390f35b34801561072657600080fd5b5061080a6004803603606081101561073d57600080fd5b81019080803573ffffffffffffffffffffffffffffffffffffffff169060200190929190803590602001909291908035906020019064010000000081111561078457600080fd5b82018360208201111561079657600080fd5b803590602001918460018302840111640100000000831117156107b857600080fd5b91908080601f016020809104026020016040519081016040528093929190818152602001838380828437600081840152601f19601f8201169050808301925050505050505091929192905050506112aa565b604051808215151515815260200191505060405180910390f35b34801561083057600080fd5b506108936004803603604081101561084757600080fd5b81019080803573ffffffffffffffffffffffffffffffffffffffff169060200190929190803573ffffffffffffffffffffffffffffffffffffffff169060200190929190505050611412565b6040518082815260200191505060405180910390f35b3480156108b557600080fd5b506108e2600480360360208110156108cc57600080fd5b8101908080359060200190929190505050611437565b005b3480156108f057600080fd5b5061093f6004803603604081101561090757600080fd5b81019080803573ffffffffffffffffffffffffffffffffffffffff1690602001909291908035151590602001909291905050506114be565b005b34801561094d57600080fd5b506109906004803603602081101561096457600080fd5b81019080803573ffffffffffffffffffffffffffffffffffffffff1690602001909291905050506115e1565b005b6000809054906101000a900473ffffffffffffffffffffffffffffffffffffffff1673ffffffffffffffffffffffffffffffffffffffff163373ffffffffffffffffffffffffffffffffffffffff16146109eb57600080fd5b81600781905550806008819055505050565b60018054600181600116156101000203166002900480601f016020809104026020016040519081016040528092919081815260200182805460018160011615610100020316600290048015610a935780601f10610a6857610100808354040283529160200191610a93565b820191906000526020600020905b815481529060010190602001808311610a7657829003601f168201915b505050505081565b600081600660003373ffffffffffffffffffffffffffffffffffffffff1673ffffffffffffffffffffffffffffffffffffffff16815260200190815260200160002060008573ffffffffffffffffffffffffffffffffffffffff1673ffffffffffffffffffffffffffffffffffffffff168152602001908152602001600020819055508273ffffffffffffffffffffffffffffffffffffffff163373ffffffffffffffffffffffffffffffffffffffff167f8c5be1e5ebec7d5bd14f71427d1e84f3dd0314c0f7b2291e5b200ac8c7c3b925846040518082815260200191505060405180910390a36001905092915050565b60045481565b6000600660008573ffffffffffffffffffffffffffffffffffffffff1673ffffffffffffffffffffffffffffffffffffffff16815260200190815260200160002060003373ffffffffffffffffffffffffffffffffffffffff1673ffffffffffffffffffffffffffffffffffffffff16815260200190815260200160002054821115610c1e57600080fd5b81600660008673ffffffffffffffffffffffffffffffffffffffff1673ffffffffffffffffffffffffffffffffffffffff16815260200190815260200160002060003373ffffffffffffffffffffffffffffffffffffffff1673ffffffffffffffffffffffffffffffffffffffff16815260200190815260200160002060008282540392505081905550610cb384848461167d565b600190509392505050565b600360009054906101000a900460ff1681565b600081600560003373ffffffffffffffffffffffffffffffffffffffff1673ffffffffffffffffffffffffffffffffffffffff168152602001908152602001600020541015610d1f57600080fd5b81600560003373ffffffffffffffffffffffffffffffffffffffff1673ffffffffffffffffffffffffffffffffffffffff16815260200190815260200160002060008282540392505081905550816004600082825403925050819055503373ffffffffffffffffffffffffffffffffffffffff167fcc16f5dbb4873280815c1ee09dbd06736cffcc184412cf7a71a0fdb75d397ca5836040518082815260200191505060405180910390a260019050919050565b60075481565b60056020528060005260406000206000915090505481565b6000809054906101000a900473ffffffffffffffffffffffffffffffffffffffff1673ffffffffffffffffffffffffffffffffffffffff163373ffffffffffffffffffffffffffffffffffffffff1614610e4a57600080fd5b80600560008473ffffffffffffffffffffffffffffffffffffffff1673ffffffffffffffffffffffffffffffffffffffff16815260200190815260200160002060008282540192505081905550806004600082825401925050819055503073ffffffffffffffffffffffffffffffffffffffff16600073ffffffffffffffffffffffffffffffffffffffff167fddf252ad1be2c89b69c2b068fc378daa952ba7f163c4a11628f55a4df523b3ef836040518082815260200191505060405180910390a38173ffffffffffffffffffffffffffffffffffffffff163073ffffffffffffffffffffffffffffffffffffffff167fddf252ad1be2c89b69c2b068fc378daa952ba7f163c4a11628f55a4df523b3ef836040518082815260200191505060405180910390a35050565b600081600560008573ffffffffffffffffffffffffffffffffffffffff1673ffffffffffffffffffffffffffffffffffffffff168152602001908152602001600020541015610fc457600080fd5b600660008473ffffffffffffffffffffffffffffffffffffffff1673ffffffffffffffffffffffffffffffffffffffff16815260200190815260200160002060003373ffffffffffffffffffffffffffffffffffffffff1673ffffffffffffffffffffffffffffffffffffffff1681526020019081526020016000205482111561104d57600080fd5b81600560008573ffffffffffffffffffffffffffffffffffffffff1673ffffffffffffffffffffffffffffffffffffffff1681526020019081526020016000206000828254039250508190555081600660008573ffffffffffffffffffffffffffffffffffffffff1673ffffffffffffffffffffffffffffffffffffffff16815260200190815260200160002060003373ffffffffffffffffffffffffffffffffffffffff1673ffffffffffffffffffffffffffffffffffffffff16815260200190815260200160002060008282540392505081905550816004600082825403925050819055508273ffffffffffffffffffffffffffffffffffffffff167fcc16f5dbb4873280815c1ee09dbd06736cffcc184412cf7a71a0fdb75d397ca5836040518082815260200191505060405180910390a26001905092915050565b60085481565b6000809054906101000a900473ffffffffffffffffffffffffffffffffffffffff1681565b60028054600181600116156101000203166002900480601f01602080910402602001604051908101604052809291908181526020018280546001816001161561010002031660029004801561124d5780601f106112225761010080835404028352916020019161124d565b820191906000526020600020905b81548152906001019060200180831161123057829003601f168201915b505050505081565b6000600854348161126257fe5b04905061127030338361167d565b50565b600061128033848461167d565b6001905092915050565b60096020528060005260406000206000915054906101000a900460ff1681565b6000808490506112ba8585610a9b565b15611409578073ffffffffffffffffffffffffffffffffffffffff16638f4ffcb1338630876040518563ffffffff1660e01b8152600401808573ffffffffffffffffffffffffffffffffffffffff1673ffffffffffffffffffffffffffffffffffffffff1681526020018481526020018373ffffffffffffffffffffffffffffffffffffffff1673ffffffffffffffffffffffffffffffffffffffff16815260200180602001828103825283818151815260200191508051906020019080838360005b8381101561139857808201518184015260208101905061137d565b50505050905090810190601f1680156113c55780820380516001836020036101000a031916815260200191505b5095505050505050600060405180830381600087803b1580156113e757600080fd5b505af11580156113fb573d6000803e3d6000fd5b50505050600191505061140b565b505b9392505050565b6006602052816000526040600020602052806000526040600020600091509150505481565b600030905060075482028173ffffffffffffffffffffffffffffffffffffffff1631101561146457600080fd5b61146f33308461167d565b3373ffffffffffffffffffffffffffffffffffffffff166108fc60075484029081150290604051600060405180830381858888f193505050501580156114b9573d6000803e3d6000fd5b505050565b6000809054906101000a900473ffffffffffffffffffffffffffffffffffffffff1673ffffffffffffffffffffffffffffffffffffffff163373ffffffffffffffffffffffffffffffffffffffff161461151757600080fd5b80600960008473ffffffffffffffffffffffffffffffffffffffff1673ffffffffffffffffffffffffffffffffffffffff16815260200190815260200160002060006101000a81548160ff0219169083151502179055507f48335238b4855f35377ed80f164e8c6f3c366e54ac00b96a6402d4a9814a03a58282604051808373ffffffffffffffffffffffffffffffffffffffff1673ffffffffffffffffffffffffffffffffffffffff168152602001821515151581526020019250505060405180910390a15050565b6000809054906101000a900473ffffffffffffffffffffffffffffffffffffffff1673ffffffffffffffffffffffffffffffffffffffff163373ffffffffffffffffffffffffffffffffffffffff161461163a57600080fd5b806000806101000a81548173ffffffffffffffffffffffffffffffffffffffff021916908373ffffffffffffffffffffffffffffffffffffffff16021790555050565b600073ffffffffffffffffffffffffffffffffffffffff168273ffffffffffffffffffffffffffffffffffffffff1614156116b757600080fd5b80600560008573ffffffffffffffffffffffffffffffffffffffff1673ffffffffffffffffffffffffffffffffffffffff16815260200190815260200160002054101561170357600080fd5b600560008373ffffffffffffffffffffffffffffffffffffffff1673ffffffffffffffffffffffffffffffffffffffff1681526020019081526020016000205481600560008573ffffffffffffffffffffffffffffffffffffffff1673ffffffffffffffffffffffffffffffffffffffff1681526020019081526020016000205401101561179057600080fd5b600960008473ffffffffffffffffffffffffffffffffffffffff1673ffffffffffffffffffffffffffffffffffffffff16815260200190815260200160002060009054906101000a900460ff16156117e757600080fd5b600960008373ffffffffffffffffffffffffffffffffffffffff1673ffffffffffffffffffffffffffffffffffffffff16815260200190815260200160002060009054906101000a900460ff161561183e57600080fd5b80600560008573ffffffffffffffffffffffffffffffffffffffff1673ffffffffffffffffffffffffffffffffffffffff1681526020019081526020016000206000828254039250508190555080600560008473ffffffffffffffffffffffffffffffffffffffff1673ffffffffffffffffffffffffffffffffffffffff168152602001908152602001600020600082825401925050819055508173ffffffffffffffffffffffffffffffffffffffff168373ffffffffffffffffffffffffffffffffffffffff167fddf252ad1be2c89b69c2b068fc378daa952ba7f163c4a11628f55a4df523b3ef836040518082815260200191505060405180910390a350505056fea265627a7a72315820b92ed9355398d5fc2a2fb2c7ab66953de188e3f8b3b1a399eb6ff4a2344506d464736f6c63430005100032",
  "source": "// =========================== ERC20 Token Contract =================\n\n/* MyAdvancedToken.sol\n\n   Modified from https://ethereum.org/token.\n\n   This contract has instructional documentation.\n\n   Within 2_deploy_migration.js we deploy and call the constructor\n   with 1300 tokens for Alice.\n\n   var aliceToken = artifacts.require(\"./MyAdvancedToken.sol\");\n   module.exports = function(deployer) {\n     deployer.deploy(aliceToken, 1300, \"Alice Coin\",\"AC\");\n   };\n\n\n   Deploy the contract with Truffle.\n   truffle migrate --reset\n\n   Run truffle console:\n\n   truffle console\n\n\n   Within the console, get access to this contract deployed on Ganache:\n\n   var Web3 = require('web3');\n   var web3 = new Web3(new Web3.providers.HttpProvider('http://localhost:7545'));\n   web3.isConnected()\n   MyAdvancedToken.deployed().then(function(x){ app = x; });\n   app\n\n   To use accounts on Ganache:\n\n   accounts = web3.eth.accounts\n   Alice = accounts[0];\n   Bob = accounts[1];\n   Charlie = accounts[2];\n   Donna = accounts[3];\n\n   etc.\n\n\n   To get the address of the contract into a convenient variable.\n   contract = '0x address from Ganache in quotes'\n\n   To access the balance of account[0] - by default the output is in Wei\n   web3.eth.getBalance(web3.eth.accounts[0]).toNumber();\n\n   To transform this into Ether, use the following:\n\n   web3._extend.utils.fromWei(web3.eth.getBalance(web3.eth.accounts[0]).toNumber(), 'ether')\n\n   An optional note on debugging:\n\n       establish an event\n\n       event Debug(string text, uint value);\n\n       code that works\n\n       Debug('Note this ', uint(addr));\n       return;  // You may not want to continue.\n                // On throw all is reverted and no events are logged.\n       problem code here\n*/\n\n\n\npragma solidity >=0.4.22 <0.6.0;\n\ncontract owned {\n    // This state variable holds the address of the owner\n    // In truffle:  app.owner().then( n => {c = n})\n    // c.toString()\n\n    address public owner;\n    // The original creator is the first owner.\n\n    // The constructor is called once on first deployment.\n    constructor() public {\n        owner = msg.sender;\n    }\n\n\n    // Add this modifier to restrict function execution\n    // to only the current owner.\n\n    modifier onlyOwner {\n        require(msg.sender == owner);\n        _;\n    }\n\n\n    // Establish a new owner.\n    // The owner calls with the address of the new owner.\n    // Suppose deployer Alice gives ownership to Bob.\n    // In truffle app.transferOwnership(Bob).then( n => {c = n})\n    function transferOwnership(address newOwner) onlyOwner public {\n        owner = newOwner;\n    }\n}\n\n\n// This interface may be implemented by another contract on the blockchain.\n// We can call this function in the other contract.\n// We are telling the other contract that it has been approved to\n// withdraw from a particular address up to a particular value.\n// We include the address of this token contract.\n\ninterface tokenRecipient { function receiveApproval(address _from, uint256 _value, address _token, bytes calldata _extraData) external; }\n\ncontract TokenERC20 {\n\n    // Public variables of the token\n    string public name;\n    string public symbol;\n    uint8 public decimals = 18;\n\n    /* We can read these data from truffle with command such as\n     app.name().then( n => {c = n})\n     c\n    */\n\n    // totalSupply established by constructor and increased\n    // by mintToken calls\n\n    uint256 public totalSupply;\n\n    /* To access totalSupply in truffle\n    app.totalSupply().then( n => {c = n})\n    c.toString();\n    */\n\n    // This creates an array with all balances.\n    // Users (Alice, Bob, Charlie) may have balances.\n    // So may the contract itself have a balance.\n    // 0 or more addresses and each has a balance.\n\n    mapping (address => uint256) public balanceOf;\n\n    // The token balances are kept with 10^decimal units.\n    // If the number of tokens is 1 and we are using 2 decimals\n    // then 100 is stored.\n\n    /* To access balanceOf\n    app.balanceOf(Alice).then( n => {c = n})\n    c.toString();\n    */\n\n    // 0 or more addresses and each has 0 or more addresses each with\n    // an allowance.\n    // The allowance balances are kept with 10^decimal units.\n\n    mapping (address => mapping (address => uint256)) public allowance;\n\n    // access with truffle. How much has Alice allowed Bob to use?\n\n    /*\n     app.allowance(Alice,Bob).then( n => {c = n})\n     c.toString();\n    */\n\n    // This generates a public event on the blockchain that can be\n    // used to notify clients.\n    // In truffle, upon receipt of response c, examine c.logs[0].args\n\n    event Transfer(address indexed from, address indexed to, uint256 value);\n\n    // This generates a public event on the blockchain that can be\n    // used to notify clients.\n\n    event Approval(address indexed _owner, address indexed _spender, uint256 _value);\n\n    // This can be used to notify clients of the amount of tokens burned.\n\n    event Burn(address indexed from, uint256 value);\n\n    /**\n     * Constructor function executes once upon deployment.\n     *\n     * Initializes the contract with an initial supply of\n     * tokens and gives them all to the creator of the\n     * contract.\n     */\n\n    constructor(\n        uint256 initialSupply,\n        string memory tokenName,\n        string memory tokenSymbol\n    ) public {\n        // In traditional money, if the initialSupply is 1 dollar then\n        // the value stored would be 1 x 10 ^ 2 = 100 cents.\n        totalSupply = initialSupply * 10 ** uint256(decimals);\n        balanceOf[msg.sender] = totalSupply;\n        name = tokenName;\n        symbol = tokenSymbol;\n    }\n\n\n\n    /**\n     * Internal transfer, only can be called by this contract.\n     * Move tokens from one account to another.\n     * Preconditions are specified in the require statements.\n     */\n\n    function _transfer(address _from, address _to, uint _value) internal {\n        // Prevent transfer to 0x0 address. Use burn() instead\n        require(_to != address(0x0));\n\n        // Check if from has enough\n        require(balanceOf[_from] >= _value);\n\n        // Check for overflows\n        require(balanceOf[_to] + _value > balanceOf[_to]);\n\n        // Save this for an assertion in the future\n        uint previousBalances = balanceOf[_from] + balanceOf[_to];\n\n        // Subtract from the from address\n        balanceOf[_from] -= _value;\n\n        // Add the same to the recipient\n        balanceOf[_to] += _value;\n\n        // Make notification of the transfer\n        emit Transfer(_from, _to, _value);\n\n        // Asserts are used to use static analysis to find bugs in your code.\n        // They should never fail\n        assert(balanceOf[_from] + balanceOf[_to] == previousBalances);\n    }\n\n\n\n     /* Public transfer of tokens.\n        Calls the internal transfer with the message sender as 'from'.\n        The caller transfers its own tokens to the specified address.\n        precondition: The caller has enough tokens to transfer.\n        postcondition: The caller's token count is lowered by the passed value.\n                       The specified address gains tokens.\n        Called from truffle with:\n        Alice (sending transaction) transfers 50 tokens to Bob\n        app.transfer(Bob,'50000000000000000000').then( n => {c = n})\n        c\n        c is a receipt\n        c.logs shows the Transfer event\n        c.logs[0]\n        c.logs[0].logIndex\n        v = c.logs[0].args.value\n        v.toString()   shows '50000000000000000000'\n\n        Bob transfers 50 tokens to Charlie.\n        Bob's address included in the transaction.\n        Bob pays for this in ether.\n        app.transfer(Charlie,'50000000000000000000',{from:Bob}).then( n => {c = n})\n\n    */\n\n    function transfer(address _to, uint256 _value) public returns (bool success) {\n        _transfer(msg.sender, _to, _value);\n        return true;\n    }\n\n\n\n     /* This is a public approve function.\n        The message sender approves the included address to\n        spend from the sender's account. The upper limit of this approval\n        is also specified.\n        It only modifies the allowance mapping.\n        sender --> spender ---> amount.\n        This generates an Approval event in the receipt log.\n        The approve call occurs prior to a transferFrom.\n\n        truffle: Bob approves Charlie to spend 25 tokens.\n        app.approve(Charlie,'25000000000000000000',{from:Bob}).then( n => {c = n})\n     */\n\n    function approve(address _spender, uint256 _value) public\n        returns (bool success) {\n\n        allowance[msg.sender][_spender] = _value;\n        emit Approval(msg.sender, _spender, _value);\n\n        return true;\n    }\n\n\n     /* This is a public transferFrom function.\n        It allows an approved sender to spend from another account.\n        Preconditions: The message sender has been approved by the specified\n        from address. The approval is of enough value.\n\n        Postcondition: Reduce how much more may be spent by this sender.\n        Perform the actual transfer from the 'from' account to the 'to' account.\n        Bob pays Charlie from Alice's account. Alice issued a prior approval\n        for Bob to spend. Bob initiates the transfer request.\n\n\n        In truffle:\n            Charlie sends 10 of Bob's tokens to Donna.\n            app.transferFrom(Bob,Donna, '10000000000000000000',{from:Charlie}).then( n => {c = n})\n    */\n\n    function transferFrom(address _from, address _to, uint256 _value) public returns (bool success) {\n        require(_value <= allowance[_from][msg.sender]);     // Check allowance\n        allowance[_from][msg.sender] -= _value;\n        _transfer(_from, _to, _value);\n        return true;\n    }\n\n\n\n     /* This is a public approve and call function.\n        It provides an allowance for another contract and informs\n        that contract of the allowance.\n        The message sender approves the included address (a contract) to\n        spend from the sender's account. The upper limit of this approval\n        is also specified.\n\n        It only modifies the allowance mapping.\n        sender --> contract spender ---> amount.\n        Because of the approve call, this generates an Approval event in\n        the receipt log.\n\n        The approve and call call occurs prior to a transferFrom.\n\n        truffle: Requires another deployed contract and the second deployed\n        contract must have a receiveApproval function.\n\n        Suppose Bob approves a contract to spend 25 tokens.\n        app.approveAndCall(contract,'25000000000000000000',\"0x00\",{from:Bob}).then( n => {c = n})\n     */\n\n    function approveAndCall(address _spender, uint256 _value, bytes memory _extraData)\n        public\n        returns (bool success) {\n\n        tokenRecipient spender = tokenRecipient(_spender);\n        if (approve(_spender, _value)) {\n            spender.receiveApproval(msg.sender, _value, address(this), _extraData);\n            return true;\n        }\n    }\n\n\n\n     /* This is a public burn function.\n        The sender loses tokens and the totalSupply is reduced.\n\n        precondition: The sender must have enough tokens to burn.\n\n        postcondition: The sender loses tokens and so does totalSupply.\n                       A burn event is published.\n\n        truffle: Suppose Bob wants to burn a 1 token\n\n        app.burn('1000000000000000000',{from:Bob}).then( n => {c = n\n        and view the burn event in the logs.\n        c.logs[0].event\n        'Burn'\n    */\n\n    function burn(uint256 _value) public returns (bool success) {\n        require(balanceOf[msg.sender] >= _value);\n        balanceOf[msg.sender] -= _value;\n        totalSupply -= _value;\n        emit Burn(msg.sender, _value);\n        return true;\n    }\n\n\n     /* This is a public function to burn some tokens that the sender (Bob)\n        has been approved to spend from the approver's (Alice) account.\n\n        Suppose Alice has allowed Bob to spend her tokens.\n        Bob is allowed to burn them if he wants.\n        Suppose he wants to burn 3 of the tokens that Alice has provided.\n        Bob calls burnFrom(Alice,3)\n\n        Precondition:\n                      Alice must have the required number of tokens.\n                      Alice must have approved Bob to use at least that number.\n\n        Postcondition: Deduct tokens from Alice.\n                       Decrease the number of tokens Bob has been approved to spend.\n                       Decrease the totalSuppy of tokens.\n                       Publish a Burn event.\n\n        Truffle: Bob wants to burn 3 token of those tokens that he may spend\n        from Alice's account.\n\n        app.burnFrom(Alice,'3000000000000000000', {from:Bob}).then( n => {c = n})\n     */\n\n    function burnFrom(address _from, uint256 _value) public returns (bool success) {\n        require(balanceOf[_from] >= _value);\n        require(_value <= allowance[_from][msg.sender]);\n        balanceOf[_from] -= _value;\n        allowance[_from][msg.sender] -= _value;\n        totalSupply -= _value;\n        emit Burn(_from, _value);\n        return true;\n    }\n\n}\n\n\n\n// MyAdvancedToken inherits from owned and TokenERC20\n\ncontract CMUToken1 is owned, TokenERC20 {\n\n    // This contract will buy and sell tokens at these prices\n    uint256 public sellPrice;\n    uint256 public buyPrice;\n\n    /* In truffle we can view these prices:\n    app.sellPrice({from:Bob}).then(n => { c = n})\n    c.toString()\n    */\n\n    // We can freeze and unfreeze accounts\n    mapping (address => bool) public frozenAccount;\n\n    /* In truffle we can view the mapping. Is Donna frozen?\n    app.frozenAccount(Donna,{from:Bob}).then(n => { c = n})\n    c.toString()\n    false\n    */\n\n\n    /* The function freezeAccounts publishes an event on the blockchain\n       that will notify clients of frozen accounts.\n    */\n\n    event FrozenFunds(address target, bool frozen);\n\n\n    // This is a public constructor.\n    // It initializes the contract with an initial supply of tokens\n    // and assigns those tokens to the deployer of the contract.\n    // It also assigns a name and a symbol.\n    // This constructor calls the parent constructor (TokenERC20).\n    // It does nothing else after the call to the TokenERC20 constructor.\n\n    constructor(\n        uint256 initialSupply,\n        string memory tokenName,\n        string memory tokenSymbol\n    ) TokenERC20(initialSupply, tokenName, tokenSymbol) public {}\n\n    /* This is an internal function. It can only be called by this contract.\n       It does not use an implied sender. It simply transfers tokens from\n       one account to another and both accounts are supplied as arguments.\n\n       Preconditions: The recipient may not be the zero address. Use burn instead.\n                      The source must have sufficient funds.\n                      No overflow is permited.\n                      Neither account may be frozen.\n\n       Postconditions: Tokens are transferred.\n                       An event is published.\n    */\n\n    function _transfer(address _from, address _to, uint _value) internal {\n        require (_to != address(0x0));\n        require (balanceOf[_from] >= _value);\n        require (balanceOf[_to] + _value >= balanceOf[_to]);\n        require(!frozenAccount[_from]);\n        require(!frozenAccount[_to]);\n\n        balanceOf[_from] -= _value;\n        balanceOf[_to] += _value;\n        emit Transfer(_from, _to, _value);\n    }\n\n\n    // This function is public but may only be called by the owner\n    // of the contract.\n    // It adds tokens to the supplied address.\n\n    /* Suppose Alice wants to add 5 tokens to Bob's account.\n\n       In truffle:\n       app.mintToken(Bob,'5000000000000000000',{from:Alice}).then(n => { c = n})\n       c\n\n       c is a receipt\n       c.logs shows two Transfer events\n       c.logs[0]  shows zero address to contract address of 5 tokens\n       c.logs[1]  shows contract address to Bob's address of 5 tokens\n\n       v = c.logs[1].args.value\n       v.toString() shows '5000000000000000000'\n    */\n\n    function mintToken(address target, uint256 mintedAmount) onlyOwner public {\n\n        balanceOf[target] += mintedAmount;\n        totalSupply += mintedAmount;\n\n        emit Transfer(address(0), address(this), mintedAmount);\n        emit Transfer(address(this), target, mintedAmount);\n    }\n\n    // This function is public but may only be called by the owner\n    // of the contract.\n    // The owner may freeze or unfreeze the specified address.\n    // Precondition: Only the owner may call.\n    // Postcondition: The specified account is frozen or unfrozen.\n    //                A FrozenFunds event is published.\n\n    /* Suppose Alice wants to freeze the account of Donna.\n       In truffle:\n       app.freezeAccount(Donna,true,{from:Alice}).then(n => { c = n})\n\n       c is a receipt\n       c.logs shows one FrozenFunds event.\n       c.logs[0]  shows the specified address and frozen is true.\n\n       v = c.logs[0].args.frozen\n       true\n    */\n\n    function freezeAccount(address target, bool freeze) onlyOwner public {\n        frozenAccount[target] = freeze;\n        emit FrozenFunds(target, freeze);\n    }\n\n\n    // This function is public but may only be called by the owner\n    // of the contract.\n    // It allows the owner to set a sell price and a buy price in eth.\n\n    /* Suppose Alice wants to set the sell price at 2 eth and the buy price at 1 eth.\n       In truffle:\n\n       app.setPrices('2','1',{from:Alice}).then(n => { c = n})\n    */\n\n    function setPrices(uint256 newSellPrice, uint256 newBuyPrice) onlyOwner public {\n        sellPrice = newSellPrice;\n        buyPrice = newBuyPrice;\n    }\n\n\n\n    // Function buy is public and since it is 'payable' it may be passed ether.\n    // The idea is to send ether to the contract's ether account in\n    // exchange for tokens going into the sender's token account.\n    // The contract will need to have some tokens in its token account\n    // before any buys can succeed.\n    // The ether account (the contract's balance) is maintained by\n    // Ethereum and is not the same as the contract's token account.\n    // The buyPrice is expressed in ether and was established by the owner.\n    // The buyer sends along a value that is expressed in wei.\n    // The contract needs tokens to sell. So, lets assume that prior\n    // to a buy call by Charlie, Alice performed the following two steps.\n    // First, she assigns the variable 'contract' to the address\n    // of the contract.\n    // contract = '0xDDec5bf035cEf613dc3cb130B0aED7172e04a35d'\n    // Second, she might mint 5 tokens for the contract.\n    // app.mintToken(contract,'5000000000000000000',{from:Alice}).then(n => { c = n})\n    // Precondition: The contract must have tokens in its token account.\n    //               The caller must have an account with sufficient funds to\n    //               cover the cost of gas and the cost of tokens.\n    // Postcondition: Tokens are transferred to the caller's token account.\n    //                Ether is placed into the contract's Ether account.\n    //                Miners take some ether based on gas used and the\n    //                price of gas.\n    //                A transfer event is published.\n    //\n\n    /* Suppose Charlie would like to buy 2 ether worth of tokens from the\n     * contract. Suppose the buy price is 4 eth per token.\n     * Truffle:\n     * app.buy({from:Charlie, value:2000000000000000000}).then(n => { c = n})\n     * The function will compute amount = 2000000000000000000 / 4 producing the\n     * correct amount in the correct format.\n    */\n\n    function buy() payable public {\n        uint amount = msg.value / buyPrice;\n        _transfer(address(this), msg.sender, amount);\n    }\n\n    // This is a public function but does not take in ether.\n    // It is not marked as 'payable'. There needs to be ether\n    // in the contract's account for it to be able to buy these\n    // tokens from the caller.\n\n    // Suppose the caller wants to sell 1 token.\n    // The token's ether balance must be >= 1 * 2 = 2.\n    // How do we check the contract's ether balance?\n\n    // In truffle:\n    // bal = web3._extend.utils.fromWei(web3.eth.getBalance(contract), 'ether')\n    // bal.toNumber()\n    // Precondition:  The contract has enough ether to buy these tokens\n    //                at the sell price.\n    // Postconditions:The tokens are added to the contract's account.\n    //                Tokens are deducted from sender's account.\n    //                Ether is transferred from contract's ether account\n    //                to sender's ether account.\n\n    function sell(uint256 amount) public {\n        address myAddress = address(this);\n        require(myAddress.balance >= amount * sellPrice);\n        _transfer(msg.sender, address(this), amount);\n\n        // It's important to do this transfer last to avoid recursion attacks.\n        msg.sender.transfer(amount * sellPrice);\n    }\n}",
  "sourcePath": "/Users/arjun/Documents/Ethereum/uniswap/core/contracts/CMUToken1.sol",
  "compiler": {
    "name": "solc",
    "version": "0.5.16+commit.9c3226ce.Emscripten.clang"
  },
  "schemaVersion": "3.4.9",
  "updatedAt": "2022-08-22T16:20:09.766Z",
  "networkType": "ethereum",
  "devdoc": {
    "methods": {}
  },
  "userdoc": {
    "methods": {}
  }
}